{
  "contractName": "IcoContract",
  "abi": [
    {
      "constant": true,
      "inputs": [
        {
          "name": "_number",
          "type": "uint256"
        }
      ],
      "name": "returnTest",
      "outputs": [
        {
          "name": "",
          "type": "uint256"
        }
      ],
      "payable": false,
      "stateMutability": "pure",
      "type": "function"
    },
    {
      "constant": true,
      "inputs": [],
      "name": "totalSupply",
      "outputs": [
        {
          "name": "",
          "type": "uint256"
        }
      ],
      "payable": false,
      "stateMutability": "view",
      "type": "function"
    },
    {
      "constant": true,
      "inputs": [],
      "name": "fundingStartTime",
      "outputs": [
        {
          "name": "",
          "type": "uint256"
        }
      ],
      "payable": false,
      "stateMutability": "view",
      "type": "function"
    },
    {
      "constant": true,
      "inputs": [
        {
          "name": "userAddress",
          "type": "address"
        }
      ],
      "name": "getTokenBalance",
      "outputs": [
        {
          "name": "",
          "type": "uint256"
        }
      ],
      "payable": false,
      "stateMutability": "view",
      "type": "function"
    },
    {
      "constant": false,
      "inputs": [],
      "name": "unpause",
      "outputs": [
        {
          "name": "",
          "type": "bool"
        }
      ],
      "payable": false,
      "stateMutability": "nonpayable",
      "type": "function"
    },
    {
      "constant": true,
      "inputs": [],
      "name": "tokenExchangeRate",
      "outputs": [
        {
          "name": "",
          "type": "uint256"
        }
      ],
      "payable": false,
      "stateMutability": "view",
      "type": "function"
    },
    {
      "constant": false,
      "inputs": [],
      "name": "finalize",
      "outputs": [],
      "payable": false,
      "stateMutability": "nonpayable",
      "type": "function"
    },
    {
      "constant": true,
      "inputs": [],
      "name": "paused",
      "outputs": [
        {
          "name": "",
          "type": "bool"
        }
      ],
      "payable": false,
      "stateMutability": "view",
      "type": "function"
    },
    {
      "constant": true,
      "inputs": [],
      "name": "ico",
      "outputs": [
        {
          "name": "",
          "type": "address"
        }
      ],
      "payable": false,
      "stateMutability": "view",
      "type": "function"
    },
    {
      "constant": true,
      "inputs": [],
      "name": "tokenCreationCap",
      "outputs": [
        {
          "name": "",
          "type": "uint256"
        }
      ],
      "payable": false,
      "stateMutability": "view",
      "type": "function"
    },
    {
      "constant": true,
      "inputs": [],
      "name": "fundingEndTime",
      "outputs": [
        {
          "name": "",
          "type": "uint256"
        }
      ],
      "payable": false,
      "stateMutability": "view",
      "type": "function"
    },
    {
      "constant": true,
      "inputs": [],
      "name": "icoAddress",
      "outputs": [
        {
          "name": "",
          "type": "address"
        }
      ],
      "payable": false,
      "stateMutability": "view",
      "type": "function"
    },
    {
      "constant": false,
      "inputs": [],
      "name": "pause",
      "outputs": [
        {
          "name": "",
          "type": "bool"
        }
      ],
      "payable": false,
      "stateMutability": "nonpayable",
      "type": "function"
    },
    {
      "constant": true,
      "inputs": [],
      "name": "isFinalized",
      "outputs": [
        {
          "name": "",
          "type": "bool"
        }
      ],
      "payable": false,
      "stateMutability": "view",
      "type": "function"
    },
    {
      "constant": true,
      "inputs": [],
      "name": "owner",
      "outputs": [
        {
          "name": "",
          "type": "address"
        }
      ],
      "payable": false,
      "stateMutability": "view",
      "type": "function"
    },
    {
      "constant": false,
      "inputs": [
        {
          "name": "to",
          "type": "address"
        },
        {
          "name": "val",
          "type": "uint256"
        },
        {
          "name": "flow",
          "type": "uint256"
        }
      ],
      "name": "CreateICO",
      "outputs": [
        {
          "name": "success",
          "type": "bool"
        }
      ],
      "payable": false,
      "stateMutability": "nonpayable",
      "type": "function"
    },
    {
      "constant": false,
      "inputs": [
        {
          "name": "_beneficiary",
          "type": "address"
        },
        {
          "name": "_value",
          "type": "uint256"
        }
      ],
      "name": "createTokens",
      "outputs": [],
      "payable": true,
      "stateMutability": "payable",
      "type": "function"
    },
    {
      "constant": true,
      "inputs": [],
      "name": "ethFundDeposit",
      "outputs": [
        {
          "name": "",
          "type": "address"
        }
      ],
      "payable": false,
      "stateMutability": "view",
      "type": "function"
    },
    {
      "constant": true,
      "inputs": [],
      "name": "minContribution",
      "outputs": [
        {
          "name": "",
          "type": "uint256"
        }
      ],
      "payable": false,
      "stateMutability": "view",
      "type": "function"
    },
    {
      "constant": false,
      "inputs": [
        {
          "name": "userAddress",
          "type": "address"
        },
        {
          "name": "amount",
          "type": "uint256"
        }
      ],
      "name": "addTokenToUser",
      "outputs": [],
      "payable": false,
      "stateMutability": "nonpayable",
      "type": "function"
    },
    {
      "constant": false,
      "inputs": [
        {
          "name": "newOwner",
          "type": "address"
        }
      ],
      "name": "transferOwnership",
      "outputs": [],
      "payable": false,
      "stateMutability": "nonpayable",
      "type": "function"
    },
    {
      "constant": false,
      "inputs": [],
      "name": "depositETH",
      "outputs": [
        {
          "name": "",
          "type": "uint256"
        }
      ],
      "payable": true,
      "stateMutability": "payable",
      "type": "function"
    },
    {
      "inputs": [
        {
          "name": "_ethFundDeposit",
          "type": "address"
        },
        {
          "name": "_icoAddress",
          "type": "address"
        },
        {
          "name": "_tokenCreationCap",
          "type": "uint256"
        },
        {
          "name": "_tokenExchangeRate",
          "type": "uint256"
        },
        {
          "name": "_fundingStartTime",
          "type": "uint256"
        },
        {
          "name": "_fundingEndTime",
          "type": "uint256"
        },
        {
          "name": "_minContribution",
          "type": "uint256"
        }
      ],
      "payable": false,
      "stateMutability": "nonpayable",
      "type": "constructor"
    },
    {
      "payable": true,
      "stateMutability": "payable",
      "type": "fallback"
    },
    {
      "anonymous": false,
      "inputs": [
        {
          "indexed": false,
          "name": "from",
          "type": "address"
        },
        {
          "indexed": false,
          "name": "to",
          "type": "address"
        },
        {
          "indexed": false,
          "name": "val",
          "type": "uint256"
        },
        {
          "indexed": false,
          "name": "flow",
          "type": "uint256"
        }
      ],
      "name": "LogCreateICO",
      "type": "event"
    },
    {
      "anonymous": false,
      "inputs": [
        {
          "indexed": false,
          "name": "userAddress",
          "type": "address"
        },
        {
          "indexed": false,
          "name": "amount",
          "type": "uint256"
        }
      ],
      "name": "AddToken",
      "type": "event"
    },
    {
      "anonymous": false,
      "inputs": [
        {
          "indexed": false,
          "name": "sourceUserId",
          "type": "uint256"
        },
        {
          "indexed": false,
          "name": "addressBeneficiary",
          "type": "address"
        }
      ],
      "name": "WithDraw",
      "type": "event"
    },
    {
      "anonymous": false,
      "inputs": [],
      "name": "Pause",
      "type": "event"
    },
    {
      "anonymous": false,
      "inputs": [],
      "name": "Unpause",
      "type": "event"
    }
  ],
  "bytecode": "0x606060405260008060146101000a81548160ff021916908315150217905550341561002957600080fd5b60405160e08061131583398101604052808051906020019091908051906020019091908051906020019091908051906020019091908051906020019091908051906020019091908051906020019091905050336000806101000a81548173ffffffffffffffffffffffffffffffffffffffff021916908373ffffffffffffffffffffffffffffffffffffffff16021790555086600460006101000a81548173ffffffffffffffffffffffffffffffffffffffff021916908373ffffffffffffffffffffffffffffffffffffffff16021790555085600560006101000a81548173ffffffffffffffffffffffffffffffffffffffff021916908373ffffffffffffffffffffffffffffffffffffffff1602179055508460028190555083600a81905550826006819055508060088190555081600781905550600560009054906101000a900473ffffffffffffffffffffffffffffffffffffffff16600160006101000a81548173ffffffffffffffffffffffffffffffffffffffff021916908373ffffffffffffffffffffffffffffffffffffffff1602179055506000600960006101000a81548160ff02191690831515021790555050505050505050611121806101f46000396000f300606060405260043610610128576000357c0100000000000000000000000000000000000000000000000000000000900463ffffffff16806309e8a5801461013457806318160ddd1461016b5780631df93558146101945780633aecd0e3146101bd5780633f4ba83a1461020a5780634172d080146102375780634bb278f3146102605780635c975abb146102755780635d452201146102a25780636f7920fd146102f757806374eedd4614610320578063788ce6f2146103495780638456cb591461039e5780638d4e4083146103cb5780638da5cb5b146103f85780638e61b3371461044d578063a69e894e146104b0578063a81c3bdf146104e7578063aaffadf31461053c578063c8b0c98014610565578063f2fde38b146105a7578063f6326fb3146105e0575b61013233346105fe565b005b341561013f57600080fd5b6101556004808035906020019091905050610853565b6040518082815260200191505060405180910390f35b341561017657600080fd5b61017e61085d565b6040518082815260200191505060405180910390f35b341561019f57600080fd5b6101a7610863565b6040518082815260200191505060405180910390f35b34156101c857600080fd5b6101f4600480803573ffffffffffffffffffffffffffffffffffffffff16906020019091905050610869565b6040518082815260200191505060405180910390f35b341561021557600080fd5b61021d610952565b604051808215151515815260200191505060405180910390f35b341561024257600080fd5b61024a610a17565b6040518082815260200191505060405180910390f35b341561026b57600080fd5b610273610a1d565b005b341561028057600080fd5b610288610b2a565b604051808215151515815260200191505060405180910390f35b34156102ad57600080fd5b6102b5610b3d565b604051808273ffffffffffffffffffffffffffffffffffffffff1673ffffffffffffffffffffffffffffffffffffffff16815260200191505060405180910390f35b341561030257600080fd5b61030a610b63565b6040518082815260200191505060405180910390f35b341561032b57600080fd5b610333610b69565b6040518082815260200191505060405180910390f35b341561035457600080fd5b61035c610b6f565b604051808273ffffffffffffffffffffffffffffffffffffffff1673ffffffffffffffffffffffffffffffffffffffff16815260200191505060405180910390f35b34156103a957600080fd5b6103b1610b95565b604051808215151515815260200191505060405180910390f35b34156103d657600080fd5b6103de610c5c565b604051808215151515815260200191505060405180910390f35b341561040357600080fd5b61040b610c6f565b604051808273ffffffffffffffffffffffffffffffffffffffff1673ffffffffffffffffffffffffffffffffffffffff16815260200191505060405180910390f35b341561045857600080fd5b610496600480803573ffffffffffffffffffffffffffffffffffffffff16906020019091908035906020019091908035906020019091905050610c94565b604051808215151515815260200191505060405180910390f35b6104e5600480803573ffffffffffffffffffffffffffffffffffffffff169060200190919080359060200190919050506105fe565b005b34156104f257600080fd5b6104fa610e19565b604051808273ffffffffffffffffffffffffffffffffffffffff1673ffffffffffffffffffffffffffffffffffffffff16815260200191505060405180910390f35b341561054757600080fd5b61054f610e3f565b6040518082815260200191505060405180910390f35b341561057057600080fd5b6105a5600480803573ffffffffffffffffffffffffffffffffffffffff16906020019091908035906020019091905050610e45565b005b34156105b257600080fd5b6105de600480803573ffffffffffffffffffffffffffffffffffffffff16906020019091905050610f9d565b005b6105e8611072565b6040518082815260200191505060405180910390f35b60008060008060008060149054906101000a900460ff1615151561062157600080fd5b60035460025411151561063357600080fd5b600654421015151561064457600080fd5b600754421115151561065557600080fd5b600854861015151561066657600080fd5b600960009054906101000a900460ff1615151561068257600080fd5b61068e86600a5461107a565b945061069c600354866110ad565b93508360025410156107b2576106b66002546003546110d7565b92506106c285846110d7565b9150600254600381905550600a54828115156106da57fe5b0490506106e987846001610c94565b15156106f457600080fd5b3373ffffffffffffffffffffffffffffffffffffffff166108fc829081150290604051600060405180830381858888f19350505050151561073457600080fd5b600460009054906101000a900473ffffffffffffffffffffffffffffffffffffffff1673ffffffffffffffffffffffffffffffffffffffff166108fc3073ffffffffffffffffffffffffffffffffffffffff16319081150290604051600060405180830381858888f1935050505015156107ad57600080fd5b61084a565b836003819055506107c587866002610c94565b15156107d057600080fd5b600460009054906101000a900473ffffffffffffffffffffffffffffffffffffffff1673ffffffffffffffffffffffffffffffffffffffff166108fc3073ffffffffffffffffffffffffffffffffffffffff16319081150290604051600060405180830381858888f19350505050151561084957600080fd5b5b50505050505050565b6000819050919050565b60035481565b60065481565b6000600160009054906101000a900473ffffffffffffffffffffffffffffffffffffffff1673ffffffffffffffffffffffffffffffffffffffff166370a08231836000604051602001526040518263ffffffff167c0100000000000000000000000000000000000000000000000000000000028152600401808273ffffffffffffffffffffffffffffffffffffffff1673ffffffffffffffffffffffffffffffffffffffff168152602001915050602060405180830381600087803b151561093057600080fd5b6102c65a03f1151561094157600080fd5b505050604051805190509050919050565b60008060009054906101000a900473ffffffffffffffffffffffffffffffffffffffff1673ffffffffffffffffffffffffffffffffffffffff163373ffffffffffffffffffffffffffffffffffffffff161415156109af57600080fd5b600060149054906101000a900460ff1615156109ca57600080fd5b60008060146101000a81548160ff0219169083151502179055507f7805862f689e2f13df9f062ff482ad3ad112aca9e0847911ed832e158c525b3360405160405180910390a16001905090565b600a5481565b6000809054906101000a900473ffffffffffffffffffffffffffffffffffffffff1673ffffffffffffffffffffffffffffffffffffffff163373ffffffffffffffffffffffffffffffffffffffff16141515610a7857600080fd5b600960009054906101000a900460ff16151515610a9457600080fd5b6001600960006101000a81548160ff021916908315150217905550600460009054906101000a900473ffffffffffffffffffffffffffffffffffffffff1673ffffffffffffffffffffffffffffffffffffffff166108fc3073ffffffffffffffffffffffffffffffffffffffff16319081150290604051600060405180830381858888f193505050501515610b2857600080fd5b565b600060149054906101000a900460ff1681565b600160009054906101000a900473ffffffffffffffffffffffffffffffffffffffff1681565b60025481565b60075481565b600560009054906101000a900473ffffffffffffffffffffffffffffffffffffffff1681565b60008060009054906101000a900473ffffffffffffffffffffffffffffffffffffffff1673ffffffffffffffffffffffffffffffffffffffff163373ffffffffffffffffffffffffffffffffffffffff16141515610bf257600080fd5b600060149054906101000a900460ff16151515610c0e57600080fd5b6001600060146101000a81548160ff0219169083151502179055507f6985a02210a168e66602d3235cb6db0e70f92b3ba4d376a33c0f3d9434bff62560405160405180910390a16001905090565b600960009054906101000a900460ff1681565b6000809054906101000a900473ffffffffffffffffffffffffffffffffffffffff1681565b60007fe8f480a17b90214abf19de19f6b1b7faaf11b01ba888c481a6ee9f915114565c6000858585604051808573ffffffffffffffffffffffffffffffffffffffff1681526020018473ffffffffffffffffffffffffffffffffffffffff1673ffffffffffffffffffffffffffffffffffffffff16815260200183815260200182815260200194505050505060405180910390a1600160009054906101000a900473ffffffffffffffffffffffffffffffffffffffff1673ffffffffffffffffffffffffffffffffffffffff16636c197ff585856000604051602001526040518363ffffffff167c0100000000000000000000000000000000000000000000000000000000028152600401808373ffffffffffffffffffffffffffffffffffffffff1673ffffffffffffffffffffffffffffffffffffffff16815260200182815260200192505050602060405180830381600087803b1515610df557600080fd5b6102c65a03f11515610e0657600080fd5b5050506040518051905090509392505050565b600460009054906101000a900473ffffffffffffffffffffffffffffffffffffffff1681565b60085481565b7fe1bea1af9b1d1aede8b7fa043080de8690470a8ae61449360b3d0c0bf8104b468282604051808373ffffffffffffffffffffffffffffffffffffffff1673ffffffffffffffffffffffffffffffffffffffff1681526020018281526020019250505060405180910390a1600160009054906101000a900473ffffffffffffffffffffffffffffffffffffffff1673ffffffffffffffffffffffffffffffffffffffff16636c197ff583836000604051602001526040518363ffffffff167c0100000000000000000000000000000000000000000000000000000000028152600401808373ffffffffffffffffffffffffffffffffffffffff1673ffffffffffffffffffffffffffffffffffffffff16815260200182815260200192505050602060405180830381600087803b1515610f7d57600080fd5b6102c65a03f11515610f8e57600080fd5b50505060405180519050505050565b6000809054906101000a900473ffffffffffffffffffffffffffffffffffffffff1673ffffffffffffffffffffffffffffffffffffffff163373ffffffffffffffffffffffffffffffffffffffff16141515610ff857600080fd5b600073ffffffffffffffffffffffffffffffffffffffff168173ffffffffffffffffffffffffffffffffffffffff1614151561106f57806000806101000a81548173ffffffffffffffffffffffffffffffffffffffff021916908373ffffffffffffffffffffffffffffffffffffffff1602179055505b50565b600034905090565b6000808284029050600084148061109b575082848281151561109857fe5b04145b15156110a357fe5b8091505092915050565b60008082840190508381101580156110c55750828110155b15156110cd57fe5b8091505092915050565b6000808284101515156110e657fe5b828403905080915050929150505600a165627a7a72305820c945d2b407cc67ab8ce51742ae114d30adc8f23df9862e41e752bc970ebfe1710029",
  "source": "pragma solidity ^0.4.17;\n\n// ================= Ownable Contract start =============================\n/*\n * Ownable\n *\n * Base contract with an owner.\n * Provides onlyOwner modifier, which prevents function from running if it is called by anyone other than the owner.\n */\ncontract Ownable {\n  address public owner;\n\n  function Ownable() public {\n    owner = msg.sender;\n  }\n\n  modifier onlyOwner() {\n    require(msg.sender == owner);\n    _;\n  }\n\n  function transferOwnership(address newOwner) public onlyOwner {\n    if (newOwner != address(0)) {\n      owner = newOwner;\n    }\n  }\n}\n// ================= Ownable Contract end ===============================\n\n// ================= Safemath Contract start ============================\n/* taking ideas from FirstBlood token */\ncontract SafeMath {\n\n  function safeAdd(uint256 x, uint256 y) internal pure returns(uint256) {\n    uint256 z = x + y;\n    assert((z >= x) && (z >= y));\n    return z;\n  }\n\n  function safeSubtract(uint256 x, uint256 y) internal pure returns(uint256) {\n    assert(x >= y);\n    uint256 z = x - y;\n    return z;\n  }\n\n  function safeMult(uint256 x, uint256 y) internal pure returns(uint256) {\n    uint256 z = x * y;\n    assert((x == 0)||(z/x == y));\n    return z;\n  }\n}\n// ================= Safemath Contract end ==============================\n\n// ================= ERC20 Token Contract start =========================\n/*\n * ERC20 interface\n * see https://github.com/ethereum/EIPs/issues/20\n */\ncontract ERC20 {\n  uint public totalSupply;\n  function balanceOf(address who) public constant returns (uint);\n  function allowance(address owner, address spender) public constant returns (uint);\n\n  function transfer(address to, uint value) public returns (bool ok);\n  function transferFrom(address from, address to, uint value) public returns (bool ok);\n  function approve(address spender, uint value) public returns (bool ok);\n  event Transfer(address indexed from, address indexed to, uint value);\n  event Approval(address indexed owner, address indexed spender, uint value);\n}\n// ================= ERC20 Token Contract end ===========================\n\n// ================= Standard Token Contract start ======================\ncontract StandardToken is ERC20, SafeMath {\n\n  /**\n  * @dev Fix for the ERC20 short address attack.\n   */\n  modifier onlyPayloadSize(uint size) {\n    require(msg.data.length >= size + 4) ;\n    _;\n  }\n\n  mapping(address => uint) balances;\n  mapping (address => mapping (address => uint)) allowed;\n\n  function transfer(address _to, uint _value) onlyPayloadSize(2 * 32)  public returns (bool success){\n    balances[msg.sender] = safeSubtract(balances[msg.sender], _value);\n    balances[_to] = safeAdd(balances[_to], _value);\n    Transfer(msg.sender, _to, _value);\n    return true;\n  }\n\n  function transferFrom(address _from, address _to, uint _value) onlyPayloadSize(3 * 32) public returns (bool success) {\n    var _allowance = allowed[_from][msg.sender];\n\n    balances[_to] = safeAdd(balances[_to], _value);\n    balances[_from] = safeSubtract(balances[_from], _value);\n    allowed[_from][msg.sender] = safeSubtract(_allowance, _value);\n    Transfer(_from, _to, _value);\n    return true;\n  }\n\n  function balanceOf(address _owner) public constant returns (uint balance) {\n    return balances[_owner];\n  }\n\n  function approve(address _spender, uint _value) public returns (bool success) {\n    allowed[msg.sender][_spender] = _value;\n    Approval(msg.sender, _spender, _value);\n    return true;\n  }\n\n  function allowance(address _owner, address _spender) public constant returns (uint remaining) {\n    return allowed[_owner][_spender];\n  }\n}\n// ================= Standard Token Contract end ========================\n\n// ================= Pausable Token Contract start ======================\n/**\n * @title Pausable\n * @dev Base contract which allows children to implement an emergency stop mechanism.\n */\ncontract Pausable is Ownable {\n  event Pause();\n  event Unpause();\n\n  bool public paused = false;\n\n\n  /**\n  * @dev modifier to allow actions only when the contract IS paused\n  */\n  modifier whenNotPaused() {\n    require (!paused);\n    _;\n  }\n\n  /**\n  * @dev modifier to allow actions only when the contract IS NOT paused\n  */\n  modifier whenPaused {\n    require (paused) ;\n    _;\n  }\n\n  /**\n  * @dev called by the owner to pause, triggers stopped state\n  */\n  function pause() onlyOwner whenNotPaused public returns (bool) {\n    paused = true;\n    Pause();\n    return true;\n  }\n\n  /**\n  * @dev called by the owner to unpause, returns to normal state\n  */\n  function unpause() onlyOwner whenPaused public returns (bool) {\n    paused = false;\n    Unpause();\n    return true;\n  }\n}\n// ================= Pausable Token Contract end ========================\n\n// ================= IcoToken  start =======================\ncontract IcoToken is SafeMath, StandardToken, Pausable {\n  string public name;\n  string public symbol;\n  uint256 public decimals;\n  string public version;\n  address public icoContract;\n\n  function IcoToken(\n    string _name,\n    string _symbol,\n    uint256 _decimals,\n    string _version\n  ) public\n  {\n    name = _name;\n    symbol = _symbol;\n    decimals = _decimals;\n    version = _version;\n  }\n\n  function transfer(address _to, uint _value) whenNotPaused public returns (bool success) {\n    return super.transfer(_to,_value);\n  }\n\n  function approve(address _spender, uint _value) whenNotPaused public returns (bool success) {\n    return super.approve(_spender,_value);\n  }\n\n  function balanceOf(address _owner) public constant returns (uint balance) {\n    return super.balanceOf(_owner);\n  }\n\n  function setIcoContract(address _icoContract) public onlyOwner {\n    if (_icoContract != address(0)) {\n      icoContract = _icoContract;\n    }\n  }\n\n  function sell(address _recipient, uint256 _value) whenNotPaused public returns (bool success) {\n      assert(_value > 0);\n      require(msg.sender == icoContract);\n\n      balances[_recipient] += _value;\n      totalSupply += _value;\n\n      Transfer(0x0, owner, _value);\n      Transfer(owner, _recipient, _value);\n      return true;\n  }\n\n}\n\n// ================= Ico Token Contract end =======================\n\n// ================= Actual Sale Contract Start ====================\ncontract IcoContract is SafeMath, Pausable {\n  IcoToken public ico;\n\n  uint256 public tokenCreationCap;\n  uint256 public totalSupply;\n\n  address public ethFundDeposit;\n  address public icoAddress;\n\n  uint256 public fundingStartTime;\n  uint256 public fundingEndTime;\n  uint256 public minContribution;\n\n  bool public isFinalized;\n  uint256 public tokenExchangeRate;\n\n  event LogCreateICO(address from, address to, uint256 val, uint flow);\n\n  // Important Note: should make this function internal when launch prod\n  function CreateICO(address to, uint256 val, uint flow) public returns (bool success) {\n    LogCreateICO(0x0, to, val, flow);\n    return ico.sell(to, val);\n  }\n\n  function IcoContract(\n    address _ethFundDeposit,\n    address _icoAddress,\n    uint256 _tokenCreationCap,\n    uint256 _tokenExchangeRate,\n    uint256 _fundingStartTime,\n    uint256 _fundingEndTime,\n    uint256 _minContribution\n  ) \n  public\n  {\n    ethFundDeposit = _ethFundDeposit;\n    icoAddress = _icoAddress;\n    tokenCreationCap = _tokenCreationCap;\n    tokenExchangeRate = _tokenExchangeRate;\n    fundingStartTime = _fundingStartTime;\n    minContribution = _minContribution;\n    fundingEndTime = _fundingEndTime;\n    ico = IcoToken(icoAddress);\n    isFinalized = false;\n  }\n\n  function () public payable {    \n    createTokens(msg.sender, msg.value);\n  }\n\n\n  function returnTest(uint _number) pure public returns (uint) {\n    return _number;\n  }\n\n  function depositETH() public payable returns (uint) {\n    return msg.value;\n  }\n\n  // Important Note: should make this function internal when launch prod\n  /// @dev Accepts ether and creates new ICO tokens.\n  function createTokens(address _beneficiary, uint256 _value) public payable whenNotPaused {\n    require (tokenCreationCap > totalSupply);\n    require (now >= fundingStartTime);\n    require (now <= fundingEndTime);\n    require (_value >= minContribution);\n    require (!isFinalized);\n\n    uint256 tokens = safeMult(_value, tokenExchangeRate);\n    uint256 checkedSupply = safeAdd(totalSupply, tokens);\n\n    if (tokenCreationCap < checkedSupply) {        \n      uint256 tokensToAllocate = safeSubtract(tokenCreationCap, totalSupply);\n      uint256 tokensToRefund = safeSubtract(tokens, tokensToAllocate);\n      totalSupply = tokenCreationCap;\n      uint256 etherToRefund = tokensToRefund / tokenExchangeRate;\n\n      require(CreateICO(_beneficiary, tokensToAllocate, 1));\n      msg.sender.transfer(etherToRefund);\n      ethFundDeposit.transfer(this.balance);\n      return;\n    }\n\n    totalSupply = checkedSupply;\n\n    require(CreateICO(_beneficiary, tokens, 2)); \n    ethFundDeposit.transfer(this.balance);\n  }\n\n  /// @dev Ends the funding period and sends the ETH home\n  function finalize() external onlyOwner {\n    require (!isFinalized);\n    // move to operational\n    isFinalized = true;\n    ethFundDeposit.transfer(this.balance);\n  }\n\n\n\n  struct User {\n    uint userId;\n    string name;\n    uint tokenBalance;\n    bool isWithdraw;\n  }\n\n  mapping(address => User) IcoUsers;\n\n  event AddToken(address userAddress, uint amount);\n  event WithDraw(uint sourceUserId, address addressBeneficiary);\n\n  function getTokenBalance(address userAddress) view public returns (uint) {\n    return ico.balanceOf(userAddress);\n  }\n\n  function addTokenToUser(address userAddress, uint amount) public {\n    AddToken(userAddress, amount);\n    ico.sell(userAddress, amount);\n  }\n\n  // function withdrawToken(uint sourceUserId, address destinationAddress) public returns (bool) {\n  //   uint tokensToAllocate = IcoUsers[sourceUserId].tokenBalance;\n  //   require(CreateICO(destinationAddress, tokensToAllocate, 0));\n  //   // set to 0 after withdraw\n  //   IcoUsers[sourceUserId].tokenBalance = 0;\n  //   WithDraw(sourceUserId,  destinationAddress);\n  //   return true;\n  // }\n}",
  "sourcePath": "/Users/tranmai/AverspaceGitRepo/huio/contracts/contracts/IcoContract.sol",
  "compiler": {
    "name": "solc",
    "version": "0.4.18+commit.9cf6e910.Emscripten.clang"
  },
  "schemaVersion": "1.0.1",
  "updatedAt": "2018-02-04T10:58:05.861Z"
}